:020000040800F2
:1000000070060020350200083D0200083F0200088B
:1000100041020008430200084502000800000000F9
:10002000000000000000000000000000470200087F
:1000300049020008000000004B0200084D020008C1
:100040004F0200084F0200084F0200084F0200084C
:100050004F0200084F020008F10200084F0200089A
:100060004F0200084F0200084F0200084F0200082C
:100070004F0200084F0200084F0200084F0200081C
:100080004F0200084F0200084F0200080000000065
:100090000000000000000000000000004F02000807
:1000A0004F0200084F0200084F0200084F020008EC
:1000B0004F0200084F0200084F0200084F020008DC
:1000C0004F0200084F0200084F0200084F020008CC
:1000D0004F0200084F0200084F0200080000000015
:1000E0004F0200084F0200084F0200080000000005
:1000F0000000000000000000000000004F020008A7
:10010000000000004F0200084F0200084F020008E4
:1001100000000000000000000000000000000000DF
:100120004F0200084F0200084F0200084F0200086B
:100130004F02000800000000000000000000000066
:100140000000000000000000000000004F02000856
:100150004F0200084F0200084F0200084F0200083B
:100160004F0200084F0200080000000000000000DD
:10017000000000000000000000000000000000007F
:10018000000000004F020008000000000000000016
:100190004F02000800F002F800F03CF80AA090E8D6
:1001A000000C82448344AAF10107DA4501D100F032
:1001B00031F8AFF2090EBAE80F0013F0010F18BFC3
:1001C000FB1A43F00103184788040000A80400004C
:1001D000103A24BF78C878C1FAD8520724BF30C873
:1001E00030C144BF04680C60704700000023002445
:1001F00000250026103A28BF78C1FBD8520728BF37
:1002000030C148BF0B6070471FB500F01BFA1FBD1F
:1002100010B510BD00F031F81146FFF7F5FF00F002
:1002200057F900F04FF803B4FFF7F2FF03BC00F0FA
:1002300057F800000948804709480047FEE7FEE7F5
:10024000FEE7FEE7FEE7FEE7FEE7FEE7FEE7FEE786
:1002500004480549054A064B70470000C9030008D9
:100260009501000870000020700600207002002038
:1002700070020020704770477047754600F02CF8F8
:10028000AE4605006946534620F00700854618B083
:1002900020B5FFF7DDFFBDE820404FF000064FF02E
:1002A00000074FF000084FF0000B21F00701AC46AB
:1002B000ACE8C009ACE8C009ACE8C009ACE8C009CA
:1002C0008D46704710B50446AFF300802046BDE868
:1002D0001040FFF7A8BF0000004870471000002042
:1002E00001491820ABBEFEE726000200704700005F
:1002F00070B52F48006840F001002D4908600620C5
:1003000000F070F82B48006800F0010000284ED083
:100310002948006838B9294800682949096808440B
:100320002849086027E024480068012807D12348AD
:10033000006823490968401A224908601BE01E48EA
:100340000068022807D11D4800681D490968484314
:100350001C4908600FE018480068032808D11748B6
:1003600000681749096890FBF1F01649086002E03F
:10037000002014490860134800680A2190FBF1F23C
:1003800001FB12040F48006890FBF1F54FF4FA628C
:100390002146284600F03CF907490968481CC11766
:1003A00000EB91718910A0EB8101034A116070BDCF
:1003B000143C014010040240000000200400002012
:1003C000080000200C0000200548006840F4700080
:1003D000034908604FF000600149803908607047A8
:1003E00088ED00E0002807DB00F01F0201219140AA
:1003F000024A430942F823107047000080E200E0FF
:10040000002107E0002201E000BF521CB2F5FA6FA4
:10041000FADB491C8142F5DB7047000010B5002271
:1004200000232A48006840F4AA50284C206027483E
:100430000C30006800F02A00244C0C342060782036
:10044000224C14342060201F016801F0010000B12B
:100450000AE001F0020008B1012205E001F0040009
:1004600008B1022200E00F221848006840F0150091
:10047000164C206015480C30006800F42A50134CCC
:100480000C3420600720114C14342060201F0068B9
:10049000C10801F0010008B100230FE001F00200E3
:1004A00008B103230AE001F0040008B1062305E0C7
:1004B00001F0080008B1092300E00F230F2B01D041
:1004C0000F2A01D10F2010BD9818FCE70008024048
:1004D0003B48006840F00100394908600846006860
:1004E00040F0020008600846006840F00400086020
:1004F00045F25550334908600020334908603048C0
:100500001430006840F480402D49143108602F48B1
:10051000006840F001002D4908602D48006840F057
:1005200001002B4908602A480830006840F00100AB
:1005300027490831086062B606200021002804DB44
:100540000A07130E234A135406E00A07140E224A20
:1005500000F00F031B1FD45400BF0620FFF742FF1B
:10056000062000280DDB00BF00BF00F01F020121A4
:1005700091404209920002F1E022C2F8001100BF4E
:1005800000BF00BF0F48406900F47F400D4948613B
:1005900015E000F027F8114908604FF47A72084618
:1005A0000168002000F034F800F01CF80C490860E5
:1005B0004FF47A7208460168002000F029F8E8E755
:1005C0003038024000000240000402400838014078
:1005D000003C014000E400E018ED00E004000020D1
:1005E0000800002000B50FE0FFF718FF0F2803D028
:1005F0000B2801D0092800D106E00A2801D10021EA
:1006000000E0411C084600E0EEE700BF00BD00002E
:1006100070B504460E4615460948406900F47F400F
:100620000749486146EA041048612846FFF7E8FE9A
:100630000348406900F47F400149486170BD0000F3
:10064000000002404FF04070E1EE100A70470000D9
:10065000700600080000002010000000D001000813
:10066000800600081000002060060000EC01000871
:10067000000000000000000000000000000000007A
:040000050800019559
:00000001FF
